:100000000C942A000C943C000C943C000C943C0092
:100010000C943C000C943C000C94A3020C943C0007
:100020000C943C000C943C000C9406020C943C0094
:100030000C943C000C943C000C943C000C943C0050
:100040000C943C000C943C000C943C000C943C0040
:100050000C943C0011241FBECFE5D8E0DEBFCDBF1D
:1000600020E0A0E6B0E001C01D92AB37B207E1F797
:100070000E94D8020C9407030C9400008091620047
:10008000811108C041E060E00E94F90081E08093A6
:100090006200089540E060E080E00E94F900109264
:1000A0006200089580916100811108C041E061E023
:1000B0000E94F90081E080936100089540E061E0D2
:1000C00080E00E94F9001092610008958091600024
:1000D000811108C041E062E00E94F90081E0809354
:1000E0006000089540E062E080E00E94F900109214
:1000F00060000895683048F4411137C0813099F0AC
:1001000030F08230E1F0833029F141E016C09AB33B
:1001100021E030E001C0220F6A95EAF720952923FB
:100120002ABB482F0AC027B381E090E001C0880FA6
:100130006A95EAF78095822387BB842F089524B3BC
:1001400081E090E001C0880F6A95EAF780958223EC
:1001500084BBF3CF21B381E090E001C0880F6A95A2
:10016000EAF78095822381BBE8CF413071F6813078
:10017000C9F070F0823009F18330F9F681B321E0E3
:1001800030E001C0220F6A95EAF7822B81BB13C0D1
:100190009AB321E030E001C0220F6A95EAF7922B72
:1001A0009ABBBFCF87B321E030E001C0220F6A9530
:1001B000EAF7822B87BB40E0C0CF84B321E030E078
:1001C00001C0220F6A95EAF7822B84BBF4CF8130FD
:1001D00049F030F0823049F0833049F081E00895F1
:1001E0006ABB089567BB80E0089564BBFCCF61BB28
:1001F000FACF683048F4411137C0813099F030F0BF
:100200008230E1F0833029F141E016C09BB321E058
:1002100030E001C0220F6A95EAF7209529232BBB15
:10022000482F0AC028B381E090E001C0880F6A958A
:10023000EAF78095822388BB842F089525B381E057
:1002400090E001C0880F6A95EAF78095822385BB0C
:10025000F3CF22B381E090E001C0880F6A95EAF7FE
:100260008095822382BBE8CF413071F68130C9F09E
:1002700070F0823009F18330F9F682B321E030E08A
:1002800001C0220F6A95EAF7822B82BB13C09BB391
:1002900021E030E001C0220F6A95EAF7922B9BBB68
:1002A000BFCF88B321E030E001C0220F6A95EAF7A2
:1002B000822B88BB40E0C0CF85B321E030E001C095
:1002C000220F6A95EAF7822B85BBF4CF813049F083
:1002D00030F0823049F0833049F081E008956BBB03
:1002E000089568BB80E0089565BBFCCF62BBFACF80
:1002F000FA01309749F0683038F4813089F030F0F5
:100300008230C9F08330C9F081E0089529B330E02C
:1003100002C0359527956A95E2F7217020830895EC
:1003200086B390E002C0959587956A95E2F7817053
:10033000808380E0089583B3F4CF80B3F2CF8FB78A
:1003400080688FBF08958FB78F778FBF0895CF9341
:10035000DF93C9E6D0E088819981009729F4EC8188
:10036000FD8109958A819B810197998388832696CF
:1003700080E0CB37D80779F7DF91CF91089587EAEE
:1003800091E00E94FA0187EC0E9404020C94DD01C6
:10039000833088F42115310571F096E0899FF001D2
:1003A0001124E759FF4F5183408373836283358360
:1003B000248380E0089581E0089583B78F7B83BF15
:1003C00083B7886083BF83B78F7E83BF83B7806224
:1003D00083BF83B78E7F83BF83B7826083BF83B7BA
:1003E0008B7F83BF89B7826089BF089582B70895E4
:1003F00082BF0895009731F0909368008093670062
:1004000080E0089582E008958CBF08951F920F92B6
:100410000FB60F9211242F933F934F935F936F93D7
:100420007F938F939F93AF93BF93EF93FF938091AD
:1004300063009091640001968A309105A9F0909331
:10044000640080936300FF91EF91BF91AF919F9102
:100450008F917F916F915F914F913F912F910F906D
:100460000FBE0F901F9018951092640010926300B9
:10047000E0916700F0916800309729F30995E3CF88
:100480008FB58E7F8FBD8FB582608FBD8EB5886032
:100490008EBD8EB580618EBD8FB58F7B8FBD8FB5C4
:1004A00080688FBD8FB58F7E8FBD8FB580628FBD09
:1004B0008EB58E7F8EBD8EB582608EBD8EB58B7FE4
:1004C0008EBD089585B58F7B85BD85B5877F85BD3C
:1004D00085B58F7E85BD85B58F7D85BD85B58160F0
:1004E00085BD85B58D7F85BD85B58B7F85BD08951F
:1004F0008EB580648EBD89B7806289BF08958130D2
:1005000029F48EB580648EBD80E00895811104C009
:100510009EB59F7B9EBD089581E0089589B7806256
:1005200089BF089589B78F7D89BF089586B597B52E
:100530000895009731F0909366008093650080E005
:10054000089582E008951F920F920FB60F92112422
:100550002F933F934F935F936F937F938F939F93CB
:10056000AF93BF93EF93FF93E0916500F091660026
:10057000309709F00995FF91EF91BF91AF919F914D
:100580008F917F916F915F914F913F912F910F903C
:100590000FBE0F901F9018959DBD8CBD08958CB512
:1005A0009DB5089597BD86BD08959BBD8ABD0895EC
:1005B00041E060E080E00E947A0041E061E080E09C
:1005C0000E947A0041E062E080E00E947A000E948E
:1005D0009F012EE330E048EE53E068EE73E080E0E8
:1005E0000E94C80122E530E050E040E060ED77E095
:1005F00081E00E94C80126E630E050E040E068E873
:1006000073E182E00E94C8010E94BF01FFCFF8940D
:02061000FFCF1A
:00000001FF
